{
    "abi": [
        {
            "type": "constructor",
            "inputs": [],
            "stateMutability": "nonpayable"
        },
        {
            "type": "function",
            "name": "approve",
            "inputs": [
                {
                    "name": "to",
                    "type": "address",
                    "internalType": "address"
                },
                {
                    "name": "tokenId",
                    "type": "uint256",
                    "internalType": "uint256"
                }
            ],
            "outputs": [],
            "stateMutability": "nonpayable"
        },
        {
            "type": "function",
            "name": "balanceOf",
            "inputs": [
                {
                    "name": "owner",
                    "type": "address",
                    "internalType": "address"
                }
            ],
            "outputs": [
                {
                    "name": "",
                    "type": "uint256",
                    "internalType": "uint256"
                }
            ],
            "stateMutability": "view"
        },
        {
            "type": "function",
            "name": "getApproved",
            "inputs": [
                {
                    "name": "tokenId",
                    "type": "uint256",
                    "internalType": "uint256"
                }
            ],
            "outputs": [
                {
                    "name": "",
                    "type": "address",
                    "internalType": "address"
                }
            ],
            "stateMutability": "view"
        },
        {
            "type": "function",
            "name": "getTokenCounter",
            "inputs": [],
            "outputs": [
                {
                    "name": "",
                    "type": "uint256",
                    "internalType": "uint256"
                }
            ],
            "stateMutability": "view"
        },
        {
            "type": "function",
            "name": "getTokenIdToState",
            "inputs": [
                {
                    "name": "tokenId",
                    "type": "uint256",
                    "internalType": "uint256"
                }
            ],
            "outputs": [
                {
                    "name": "",
                    "type": "uint8",
                    "internalType": "enum GameSessionNft.NFTState"
                }
            ],
            "stateMutability": "view"
        },
        {
            "type": "function",
            "name": "isApprovedForAll",
            "inputs": [
                {
                    "name": "owner",
                    "type": "address",
                    "internalType": "address"
                },
                {
                    "name": "operator",
                    "type": "address",
                    "internalType": "address"
                }
            ],
            "outputs": [
                {
                    "name": "",
                    "type": "bool",
                    "internalType": "bool"
                }
            ],
            "stateMutability": "view"
        },
        {
            "type": "function",
            "name": "mint",
            "inputs": [
                {
                    "name": "to",
                    "type": "address",
                    "internalType": "address"
                },
                {
                    "name": "sessionId",
                    "type": "string",
                    "internalType": "string"
                }
            ],
            "outputs": [],
            "stateMutability": "nonpayable"
        },
        {
            "type": "function",
            "name": "mintNftActive",
            "inputs": [
                {
                    "name": "tokenUri",
                    "type": "string",
                    "internalType": "string"
                }
            ],
            "outputs": [],
            "stateMutability": "nonpayable"
        },
        {
            "type": "function",
            "name": "mintNftComplete",
            "inputs": [
                {
                    "name": "tokenUri",
                    "type": "string",
                    "internalType": "string"
                }
            ],
            "outputs": [],
            "stateMutability": "nonpayable"
        },
        {
            "type": "function",
            "name": "mintWithTokenUri",
            "inputs": [
                {
                    "name": "to",
                    "type": "address",
                    "internalType": "address"
                },
                {
                    "name": "tokenUri",
                    "type": "string",
                    "internalType": "string"
                }
            ],
            "outputs": [],
            "stateMutability": "nonpayable"
        },
        {
            "type": "function",
            "name": "name",
            "inputs": [],
            "outputs": [
                {
                    "name": "",
                    "type": "string",
                    "internalType": "string"
                }
            ],
            "stateMutability": "view"
        },
        {
            "type": "function",
            "name": "owner",
            "inputs": [],
            "outputs": [
                {
                    "name": "",
                    "type": "address",
                    "internalType": "address"
                }
            ],
            "stateMutability": "view"
        },
        {
            "type": "function",
            "name": "ownerOf",
            "inputs": [
                {
                    "name": "tokenId",
                    "type": "uint256",
                    "internalType": "uint256"
                }
            ],
            "outputs": [
                {
                    "name": "",
                    "type": "address",
                    "internalType": "address"
                }
            ],
            "stateMutability": "view"
        },
        {
            "type": "function",
            "name": "renounceOwnership",
            "inputs": [],
            "outputs": [],
            "stateMutability": "nonpayable"
        },
        {
            "type": "function",
            "name": "safeTransferFrom",
            "inputs": [
                {
                    "name": "from",
                    "type": "address",
                    "internalType": "address"
                },
                {
                    "name": "to",
                    "type": "address",
                    "internalType": "address"
                },
                {
                    "name": "tokenId",
                    "type": "uint256",
                    "internalType": "uint256"
                }
            ],
            "outputs": [],
            "stateMutability": "nonpayable"
        },
        {
            "type": "function",
            "name": "safeTransferFrom",
            "inputs": [
                {
                    "name": "from",
                    "type": "address",
                    "internalType": "address"
                },
                {
                    "name": "to",
                    "type": "address",
                    "internalType": "address"
                },
                {
                    "name": "tokenId",
                    "type": "uint256",
                    "internalType": "uint256"
                },
                {
                    "name": "data",
                    "type": "bytes",
                    "internalType": "bytes"
                }
            ],
            "outputs": [],
            "stateMutability": "nonpayable"
        },
        {
            "type": "function",
            "name": "setApprovalForAll",
            "inputs": [
                {
                    "name": "operator",
                    "type": "address",
                    "internalType": "address"
                },
                {
                    "name": "approved",
                    "type": "bool",
                    "internalType": "bool"
                }
            ],
            "outputs": [],
            "stateMutability": "nonpayable"
        },
        {
            "type": "function",
            "name": "supportsInterface",
            "inputs": [
                {
                    "name": "interfaceId",
                    "type": "bytes4",
                    "internalType": "bytes4"
                }
            ],
            "outputs": [
                {
                    "name": "",
                    "type": "bool",
                    "internalType": "bool"
                }
            ],
            "stateMutability": "view"
        },
        {
            "type": "function",
            "name": "symbol",
            "inputs": [],
            "outputs": [
                {
                    "name": "",
                    "type": "string",
                    "internalType": "string"
                }
            ],
            "stateMutability": "view"
        },
        {
            "type": "function",
            "name": "tokenURI",
            "inputs": [
                {
                    "name": "tokenId",
                    "type": "uint256",
                    "internalType": "uint256"
                }
            ],
            "outputs": [
                {
                    "name": "",
                    "type": "string",
                    "internalType": "string"
                }
            ],
            "stateMutability": "view"
        },
        {
            "type": "function",
            "name": "transferFrom",
            "inputs": [
                {
                    "name": "from",
                    "type": "address",
                    "internalType": "address"
                },
                {
                    "name": "to",
                    "type": "address",
                    "internalType": "address"
                },
                {
                    "name": "tokenId",
                    "type": "uint256",
                    "internalType": "uint256"
                }
            ],
            "outputs": [],
            "stateMutability": "nonpayable"
        },
        {
            "type": "function",
            "name": "transferOwnership",
            "inputs": [
                {
                    "name": "newOwner",
                    "type": "address",
                    "internalType": "address"
                }
            ],
            "outputs": [],
            "stateMutability": "nonpayable"
        },
        {
            "type": "event",
            "name": "Approval",
            "inputs": [
                {
                    "name": "owner",
                    "type": "address",
                    "indexed": true,
                    "internalType": "address"
                },
                {
                    "name": "approved",
                    "type": "address",
                    "indexed": true,
                    "internalType": "address"
                },
                {
                    "name": "tokenId",
                    "type": "uint256",
                    "indexed": true,
                    "internalType": "uint256"
                }
            ],
            "anonymous": false
        },
        {
            "type": "event",
            "name": "ApprovalForAll",
            "inputs": [
                {
                    "name": "owner",
                    "type": "address",
                    "indexed": true,
                    "internalType": "address"
                },
                {
                    "name": "operator",
                    "type": "address",
                    "indexed": true,
                    "internalType": "address"
                },
                {
                    "name": "approved",
                    "type": "bool",
                    "indexed": false,
                    "internalType": "bool"
                }
            ],
            "anonymous": false
        },
        {
            "type": "event",
            "name": "CreatedNFT",
            "inputs": [
                {
                    "name": "tokenId",
                    "type": "uint256",
                    "indexed": true,
                    "internalType": "uint256"
                }
            ],
            "anonymous": false
        },
        {
            "type": "event",
            "name": "OwnershipTransferred",
            "inputs": [
                {
                    "name": "previousOwner",
                    "type": "address",
                    "indexed": true,
                    "internalType": "address"
                },
                {
                    "name": "newOwner",
                    "type": "address",
                    "indexed": true,
                    "internalType": "address"
                }
            ],
            "anonymous": false
        },
        {
            "type": "event",
            "name": "Transfer",
            "inputs": [
                {
                    "name": "from",
                    "type": "address",
                    "indexed": true,
                    "internalType": "address"
                },
                {
                    "name": "to",
                    "type": "address",
                    "indexed": true,
                    "internalType": "address"
                },
                {
                    "name": "tokenId",
                    "type": "uint256",
                    "indexed": true,
                    "internalType": "uint256"
                }
            ],
            "anonymous": false
        },
        {
            "type": "error",
            "name": "ERC721IncorrectOwner",
            "inputs": [
                {
                    "name": "sender",
                    "type": "address",
                    "internalType": "address"
                },
                {
                    "name": "tokenId",
                    "type": "uint256",
                    "internalType": "uint256"
                },
                {
                    "name": "owner",
                    "type": "address",
                    "internalType": "address"
                }
            ]
        },
        {
            "type": "error",
            "name": "ERC721InsufficientApproval",
            "inputs": [
                {
                    "name": "operator",
                    "type": "address",
                    "internalType": "address"
                },
                {
                    "name": "tokenId",
                    "type": "uint256",
                    "internalType": "uint256"
                }
            ]
        },
        {
            "type": "error",
            "name": "ERC721InvalidApprover",
            "inputs": [
                {
                    "name": "approver",
                    "type": "address",
                    "internalType": "address"
                }
            ]
        },
        {
            "type": "error",
            "name": "ERC721InvalidOperator",
            "inputs": [
                {
                    "name": "operator",
                    "type": "address",
                    "internalType": "address"
                }
            ]
        },
        {
            "type": "error",
            "name": "ERC721InvalidOwner",
            "inputs": [
                {
                    "name": "owner",
                    "type": "address",
                    "internalType": "address"
                }
            ]
        },
        {
            "type": "error",
            "name": "ERC721InvalidReceiver",
            "inputs": [
                {
                    "name": "receiver",
                    "type": "address",
                    "internalType": "address"
                }
            ]
        },
        {
            "type": "error",
            "name": "ERC721InvalidSender",
            "inputs": [
                {
                    "name": "sender",
                    "type": "address",
                    "internalType": "address"
                }
            ]
        },
        {
            "type": "error",
            "name": "ERC721NonexistentToken",
            "inputs": [
                {
                    "name": "tokenId",
                    "type": "uint256",
                    "internalType": "uint256"
                }
            ]
        },
        {
            "type": "error",
            "name": "OwnableInvalidOwner",
            "inputs": [
                {
                    "name": "owner",
                    "type": "address",
                    "internalType": "address"
                }
            ]
        },
        {
            "type": "error",
            "name": "OwnableUnauthorizedAccount",
            "inputs": [
                {
                    "name": "account",
                    "type": "address",
                    "internalType": "address"
                }
            ]
        }
    ],
    "bytecode": {
        "object": "0x60806040523480156200001157600080fd5b50336040518060400160405280601081526020016f135bdb9ad95e551c9a5d9a584813919560821b8152506040518060400160405280600981526020016826aa29b2b9b9b4b7b760b91b81525081600090816200006f9190620001be565b5060016200007e8282620001be565b5050506001600160a01b038116620000b057604051631e4fbdf760e01b81526000600482015260240160405180910390fd5b620000bb81620000c7565b5060006007556200028a565b600680546001600160a01b038381166001600160a01b0319831681179093556040519116919082907f8be0079c531659141344cd1fd0a4f28419497f9722a3daafe3b4186f6b6457e090600090a35050565b634e487b7160e01b600052604160045260246000fd5b600181811c908216806200014457607f821691505b6020821081036200016557634e487b7160e01b600052602260045260246000fd5b50919050565b601f821115620001b957600081815260208120601f850160051c81016020861015620001945750805b601f850160051c820191505b81811015620001b557828155600101620001a0565b5050505b505050565b81516001600160401b03811115620001da57620001da62000119565b620001f281620001eb84546200012f565b846200016b565b602080601f8311600181146200022a5760008415620002115750858301515b600019600386901b1c1916600185901b178555620001b5565b600085815260208120601f198616915b828110156200025b578886015182559484019460019091019084016200023a565b50858210156200027a5787850151600019600388901b60f8161c191681555b5050505050600190811b01905550565b611788806200029a6000396000f3fe608060405234801561001057600080fd5b50600436106101425760003560e01c80638082d093116100b8578063a22cb4651161007c578063a22cb465146102ac578063b88d4fde146102bf578063c87b56dd146102d2578063d0def521146102e5578063e985e9c5146102f8578063f2fde38b1461030b57600080fd5b80638082d0931461023d5780638da5cb5b1461026d57806395d89b411461027e57806396fd26ef1461028657806397bcfc6f1461029957600080fd5b806342842e0e1161010a57806342842e0e146101d75780636352211e146101ea5780636aa2b37b146101fd5780636e02007d1461021057806370a0823114610222578063715018a61461023557600080fd5b806301ffc9a71461014757806306fdde031461016f578063081812fc14610184578063095ea7b3146101af57806323b872dd146101c4575b600080fd5b61015a610155366004610fb3565b61031e565b60405190151581526020015b60405180910390f35b610177610370565b6040516101669190611027565b61019761019236600461103a565b610402565b6040516001600160a01b039091168152602001610166565b6101c26101bd36600461106f565b61042b565b005b6101c26101d2366004611099565b61043a565b6101c26101e5366004611099565b6104ca565b6101976101f836600461103a565b6104ea565b6101c261020b366004611181565b6104f5565b6007545b604051908152602001610166565b6102146102303660046111cf565b61054a565b6101c2610592565b61026061024b36600461103a565b60009081526009602052604090205460ff1690565b60405161016691906111ea565b6006546001600160a01b0316610197565b6101776105a6565b6101c2610294366004611212565b6105b5565b6101c26102a7366004611212565b6105f2565b6101c26102ba366004611247565b61061d565b6101c26102cd366004611283565b610628565b6101776102e036600461103a565b61063f565b6101c26102f3366004611181565b6106e1565b61015a6103063660046112ff565b6107bd565b6101c26103193660046111cf565b6107eb565b60006001600160e01b031982166380ac58cd60e01b148061034f57506001600160e01b03198216635b5e139f60e01b145b8061036a57506301ffc9a760e01b6001600160e01b03198316145b92915050565b60606000805461037f90611332565b80601f01602080910402602001604051908101604052809291908181526020018280546103ab90611332565b80156103f85780601f106103cd576101008083540402835291602001916103f8565b820191906000526020600020905b8154815290600101906020018083116103db57829003601f168201915b5050505050905090565b600061040d82610829565b506000828152600460205260409020546001600160a01b031661036a565b610436828233610862565b5050565b6001600160a01b03821661046957604051633250574960e11b8152600060048201526024015b60405180910390fd5b600061047683833361086f565b9050836001600160a01b0316816001600160a01b0316146104c4576040516364283d7b60e01b81526001600160a01b0380861660048301526024820184905282166044820152606401610460565b50505050565b6104e583838360405180602001604052806000815250610628565b505050565b600061036a82610829565b61050182600754610968565b600780546000908152600960209081526040808320805460ff1916600117905592548252600890522061053482826113ba565b50600754610543906001611490565b6007555050565b60006001600160a01b038216610576576040516322718ad960e21b815260006004820152602401610460565b506001600160a01b031660009081526003602052604090205490565b61059a610982565b6105a460006109af565b565b60606001805461037f90611332565b6105be81610a01565b6007546000908152600960205260408120805460ff19166001835b02179055506007546105ec906001611490565b60075550565b6105fb81610a01565b600754600090815260096020526040902080546001919060ff191682806105d9565b610436338383610a29565b61063384848461043a565b6104c484848484610ac8565b600081815260086020526040902080546060919061065c90611332565b80601f016020809104026020016040519081016040528092919081815260200182805461068890611332565b80156106d55780601f106106aa576101008083540402835291602001916106d5565b820191906000526020600020905b8154815290600101906020018083116106b857829003601f168201915b50505050509050919050565b600061071d60408051808201909152601d81527f646174613a6170706c69636174696f6e2f6a736f6e3b6261736536342c000000602082015290565b6107458360405160200161073191906114a3565b604051602081830303815290604052610bf1565b604051602001610756929190611650565b604051602081830303815290604052905061077383600754610968565b600780546000908152600960209081526040808320805460ff191660011790559254825260089052206107a682826113ba565b506007546107b5906001611490565b600755505050565b6001600160a01b03918216600090815260056020908152604080832093909416825291909152205460ff1690565b6107f3610982565b6001600160a01b03811661081d57604051631e4fbdf760e01b815260006004820152602401610460565b610826816109af565b50565b6000818152600260205260408120546001600160a01b03168061036a57604051637e27328960e01b815260048101849052602401610460565b6104e58383836001610d51565b6000828152600260205260408120546001600160a01b039081169083161561089c5761089c818486610e57565b6001600160a01b038116156108da576108b9600085600080610d51565b6001600160a01b038116600090815260036020526040902080546000190190555b6001600160a01b03851615610909576001600160a01b0385166000908152600360205260409020805460010190555b60008481526002602052604080822080546001600160a01b0319166001600160a01b0389811691821790925591518793918516917fddf252ad1be2c89b69c2b068fc378daa952ba7f163c4a11628f55a4df523b3ef91a4949350505050565b610436828260405180602001604052806000815250610ebb565b6006546001600160a01b031633146105a45760405163118cdaa760e01b8152336004820152602401610460565b600680546001600160a01b038381166001600160a01b0319831681179093556040519116919082907f8be0079c531659141344cd1fd0a4f28419497f9722a3daafe3b4186f6b6457e090600090a35050565b6007546000908152600860205260409020610a1c82826113ba565b5061082633600754610968565b6001600160a01b038216610a5b57604051630b61174360e31b81526001600160a01b0383166004820152602401610460565b6001600160a01b03838116600081815260056020908152604080832094871680845294825291829020805460ff191686151590811790915591519182527f17307eab39ab6107e8899845ad3d59bd9653f200f220920489ca2b5937696c31910160405180910390a3505050565b6001600160a01b0383163b156104c457604051630a85bd0160e11b81526001600160a01b0384169063150b7a0290610b0a90339088908790879060040161167f565b6020604051808303816000875af1925050508015610b45575060408051601f3d908101601f19168201909252610b42918101906116bc565b60015b610bae573d808015610b73576040519150601f19603f3d011682016040523d82523d6000602084013e610b78565b606091505b508051600003610ba657604051633250574960e11b81526001600160a01b0385166004820152602401610460565b805181602001fd5b6001600160e01b03198116630a85bd0160e11b14610bea57604051633250574960e11b81526001600160a01b0385166004820152602401610460565b5050505050565b60608151600003610c1057505060408051602081019091526000815290565b60006040518060600160405280604081526020016117136040913990506000600384516002610c3f9190611490565b610c4991906116d9565b610c549060046116fb565b67ffffffffffffffff811115610c6c57610c6c6110d5565b6040519080825280601f01601f191660200182016040528015610c96576020820181803683370190505b50905060018201602082018586518701602081018051600082525b82841015610d0c576003840193508351603f8160121c168701518653600186019550603f81600c1c168701518653600186019550603f8160061c168701518653600186019550603f8116870151865350600185019450610cb1565b9052505085516003900660018114610d2b5760028114610d3e57610d46565b603d6001830353603d6002830353610d46565b603d60018303535b509195945050505050565b8080610d6557506001600160a01b03821615155b15610e27576000610d7584610829565b90506001600160a01b03831615801590610da15750826001600160a01b0316816001600160a01b031614155b8015610db45750610db281846107bd565b155b15610ddd5760405163a9fbf51f60e01b81526001600160a01b0384166004820152602401610460565b8115610e255783856001600160a01b0316826001600160a01b03167f8c5be1e5ebec7d5bd14f71427d1e84f3dd0314c0f7b2291e5b200ac8c7c3b92560405160405180910390a45b505b5050600090815260046020526040902080546001600160a01b0319166001600160a01b0392909216919091179055565b610e62838383610ed2565b6104e5576001600160a01b038316610e9057604051637e27328960e01b815260048101829052602401610460565b60405163177e802f60e01b81526001600160a01b038316600482015260248101829052604401610460565b610ec58383610f38565b6104e56000848484610ac8565b60006001600160a01b03831615801590610f305750826001600160a01b0316846001600160a01b03161480610f0c5750610f0c84846107bd565b80610f3057506000828152600460205260409020546001600160a01b038481169116145b949350505050565b6001600160a01b038216610f6257604051633250574960e11b815260006004820152602401610460565b6000610f708383600061086f565b90506001600160a01b038116156104e5576040516339e3563760e11b815260006004820152602401610460565b6001600160e01b03198116811461082657600080fd5b600060208284031215610fc557600080fd5b8135610fd081610f9d565b9392505050565b60005b83811015610ff2578181015183820152602001610fda565b50506000910152565b60008151808452611013816020860160208601610fd7565b601f01601f19169290920160200192915050565b602081526000610fd06020830184610ffb565b60006020828403121561104c57600080fd5b5035919050565b80356001600160a01b038116811461106a57600080fd5b919050565b6000806040838503121561108257600080fd5b61108b83611053565b946020939093013593505050565b6000806000606084860312156110ae57600080fd5b6110b784611053565b92506110c560208501611053565b9150604084013590509250925092565b634e487b7160e01b600052604160045260246000fd5b600067ffffffffffffffff80841115611106576111066110d5565b604051601f8501601f19908116603f0116810190828211818310171561112e5761112e6110d5565b8160405280935085815286868601111561114757600080fd5b858560208301376000602087830101525050509392505050565b600082601f83011261117257600080fd5b610fd0838335602085016110eb565b6000806040838503121561119457600080fd5b61119d83611053565b9150602083013567ffffffffffffffff8111156111b957600080fd5b6111c585828601611161565b9150509250929050565b6000602082840312156111e157600080fd5b610fd082611053565b602081016002831061120c57634e487b7160e01b600052602160045260246000fd5b91905290565b60006020828403121561122457600080fd5b813567ffffffffffffffff81111561123b57600080fd5b610f3084828501611161565b6000806040838503121561125a57600080fd5b61126383611053565b91506020830135801515811461127857600080fd5b809150509250929050565b6000806000806080858703121561129957600080fd5b6112a285611053565b93506112b060208601611053565b925060408501359150606085013567ffffffffffffffff8111156112d357600080fd5b8501601f810187136112e457600080fd5b6112f3878235602084016110eb565b91505092959194509250565b6000806040838503121561131257600080fd5b61131b83611053565b915061132960208401611053565b90509250929050565b600181811c9082168061134657607f821691505b60208210810361136657634e487b7160e01b600052602260045260246000fd5b50919050565b601f8211156104e557600081815260208120601f850160051c810160208610156113935750805b601f850160051c820191505b818110156113b25782815560010161139f565b505050505050565b815167ffffffffffffffff8111156113d4576113d46110d5565b6113e8816113e28454611332565b8461136c565b602080601f83116001811461141d57600084156114055750858301515b600019600386901b1c1916600185901b1785556113b2565b600085815260208120601f198616915b8281101561144c5788860151825594840194600190910190840161142d565b508582101561146a5787850151600019600388901b60f8161c191681555b5050505050600190811b01905550565b634e487b7160e01b600052601160045260246000fd5b8082018082111561036a5761036a61147a565b683d913730b6b2911d1160b91b81527f4d6f6e6b6579205472697669612053657373696f6e20436f6d706c657465640060098201527f222c20226465736372697074696f6e223a2247616d65207365737369696f6e2060288201527f636f6d706c657465642e2020596f752061726520612077696e6e65722122000060488201527f2c202261747472696275746573223a205b7b2274726169745f74797065223a2060668201527f22706c616365222c202276616c7565223a2022317374227d2c207b227472616960868201527f745f74797065223a202273657373696f6e4964222c202276616c7565223a220060a682015281516000906115ac8160c5850160208701610fd7565b6d113eae96101134b6b0b3b2911d1160911b60c5918401918201527f68747470733a2f2f62616679626569657878793776707470746a36797836726560d38201527f6876357870346761377a7a7462653275647532643367613362653467736e376e60f38201527f6b78342e697066732e6e667473746f726167652e6c696e6b2f00000000000000610113820152610f3061012c820161227d60f01b815260020190565b60008351611662818460208801610fd7565b835190830190611676818360208801610fd7565b01949350505050565b6001600160a01b03858116825284166020820152604081018390526080606082018190526000906116b290830184610ffb565b9695505050505050565b6000602082840312156116ce57600080fd5b8151610fd081610f9d565b6000826116f657634e487b7160e01b600052601260045260246000fd5b500490565b808202811582820484141761036a5761036a61147a56fe4142434445464748494a4b4c4d4e4f505152535455565758595a6162636465666768696a6b6c6d6e6f707172737475767778797a303132333435363738392b2fa2646970667358221220c8dfa940f4cb2d71bffa0f01f3b1dd4d6f9e24b29476f9dfac4da903456f656f64736f6c63430008140033",
        "linkReferences": {}
    },
    "methodIdentifiers": {
        "approve(address,uint256)": "095ea7b3",
        "balanceOf(address)": "70a08231",
        "getApproved(uint256)": "081812fc",
        "getTokenCounter()": "6e02007d",
        "getTokenIdToState(uint256)": "8082d093",
        "isApprovedForAll(address,address)": "e985e9c5",
        "mint(address,string)": "d0def521",
        "mintNftActive(string)": "96fd26ef",
        "mintNftComplete(string)": "97bcfc6f",
        "mintWithTokenUri(address,string)": "6aa2b37b",
        "name()": "06fdde03",
        "owner()": "8da5cb5b",
        "ownerOf(uint256)": "6352211e",
        "renounceOwnership()": "715018a6",
        "safeTransferFrom(address,address,uint256)": "42842e0e",
        "safeTransferFrom(address,address,uint256,bytes)": "b88d4fde",
        "setApprovalForAll(address,bool)": "a22cb465",
        "supportsInterface(bytes4)": "01ffc9a7",
        "symbol()": "95d89b41",
        "tokenURI(uint256)": "c87b56dd",
        "transferFrom(address,address,uint256)": "23b872dd",
        "transferOwnership(address)": "f2fde38b"
    },
    "id": 0
}