{"abi":[{"type":"constructor","inputs":[{"name":"functionsRouter","type":"address","internalType":"address"},{"name":"donId","type":"bytes32","internalType":"bytes32"},{"name":"secretVersion","type":"uint64","internalType":"uint64"},{"name":"secretSlot","type":"uint8","internalType":"uint8"},{"name":"source","type":"string","internalType":"string"},{"name":"subscriptionId","type":"uint64","internalType":"uint64"},{"name":"_vrfSubscription","type":"uint256","internalType":"uint256"},{"name":"_vrfCoordinator","type":"address","internalType":"address"}],"stateMutability":"nonpayable"},{"type":"function","name":"acceptOwnership","inputs":[],"outputs":[],"stateMutability":"nonpayable"},{"type":"function","name":"checkUpkeep","inputs":[{"name":"","type":"bytes","internalType":"bytes"}],"outputs":[{"name":"upkeepNeeded","type":"bool","internalType":"bool"},{"name":"performData","type":"bytes","internalType":"bytes"}],"stateMutability":"view"},{"type":"function","name":"claimNFT","inputs":[{"name":"_gameId","type":"uint256","internalType":"uint256"}],"outputs":[],"stateMutability":"nonpayable"},{"type":"function","name":"convertAddressToString","inputs":[{"name":"_address","type":"address","internalType":"address"}],"outputs":[{"name":"","type":"string","internalType":"string"}],"stateMutability":"pure"},{"type":"function","name":"createGame","inputs":[{"name":"_startTime","type":"uint256","internalType":"uint256"},{"name":"_endTime","type":"uint256","internalType":"uint256"}],"outputs":[],"stateMutability":"nonpayable"},{"type":"function","name":"createGameDefault","inputs":[],"outputs":[],"stateMutability":"nonpayable"},{"type":"function","name":"createGameWithInterval","inputs":[{"name":"_interval","type":"uint256","internalType":"uint256"}],"outputs":[],"stateMutability":"nonpayable"},{"type":"function","name":"depositNFT","inputs":[{"name":"_gameId","type":"uint256","internalType":"uint256"},{"name":"_nftContract","type":"address","internalType":"address"},{"name":"_tokenId","type":"uint256","internalType":"uint256"}],"outputs":[],"stateMutability":"nonpayable"},{"type":"function","name":"endGame","inputs":[{"name":"_gameId","type":"uint256","internalType":"uint256"}],"outputs":[],"stateMutability":"nonpayable"},{"type":"function","name":"fulfillWinnerMt","inputs":[{"name":"_gameId","type":"uint256","internalType":"uint256"},{"name":"winnerIndex","type":"uint256","internalType":"uint256"}],"outputs":[],"stateMutability":"nonpayable"},{"type":"function","name":"fulfillWinners","inputs":[{"name":"_requestId","type":"uint256","internalType":"uint256"}],"outputs":[],"stateMutability":"nonpayable"},{"type":"function","name":"games","inputs":[{"name":"","type":"uint256","internalType":"uint256"}],"outputs":[{"name":"creator","type":"address","internalType":"address"},{"name":"startTime","type":"uint256","internalType":"uint256"},{"name":"endTime","type":"uint256","internalType":"uint256"},{"name":"isActive","type":"bool","internalType":"bool"},{"name":"nftContract","type":"address","internalType":"address"},{"name":"nftTokenId","type":"uint256","internalType":"uint256"},{"name":"nftClaimed","type":"bool","internalType":"bool"}],"stateMutability":"view"},{"type":"function","name":"getGameCreator","inputs":[{"name":"gameId","type":"uint256","internalType":"uint256"}],"outputs":[{"name":"","type":"address","internalType":"address"}],"stateMutability":"view"},{"type":"function","name":"getGameEndTime","inputs":[{"name":"gameId","type":"uint256","internalType":"uint256"}],"outputs":[{"name":"","type":"uint256","internalType":"uint256"}],"stateMutability":"view"},{"type":"function","name":"getGameIsActive","inputs":[{"name":"gameId","type":"uint256","internalType":"uint256"}],"outputs":[{"name":"","type":"bool","internalType":"bool"}],"stateMutability":"view"},{"type":"function","name":"getGameParticipantScore","inputs":[{"name":"gameId","type":"uint256","internalType":"uint256"},{"name":"participant","type":"address","internalType":"address"}],"outputs":[{"name":"","type":"string","internalType":"string"}],"stateMutability":"view"},{"type":"function","name":"getGameParticipants","inputs":[{"name":"gameId","type":"uint256","internalType":"uint256"}],"outputs":[{"name":"","type":"address[]","internalType":"address[]"}],"stateMutability":"view"},{"type":"function","name":"getGameScores","inputs":[{"name":"gameId","type":"uint256","internalType":"uint256"}],"outputs":[{"name":"","type":"address[]","internalType":"address[]"},{"name":"","type":"string[]","internalType":"string[]"}],"stateMutability":"view"},{"type":"function","name":"getGameStartTime","inputs":[{"name":"gameId","type":"uint256","internalType":"uint256"}],"outputs":[{"name":"","type":"uint256","internalType":"uint256"}],"stateMutability":"view"},{"type":"function","name":"getLastRandomWords","inputs":[],"outputs":[{"name":"","type":"uint256[]","internalType":"uint256[]"}],"stateMutability":"view"},{"type":"function","name":"getLastRequestId","inputs":[],"outputs":[{"name":"","type":"bytes32","internalType":"bytes32"}],"stateMutability":"view"},{"type":"function","name":"getLastResponse","inputs":[],"outputs":[{"name":"","type":"string","internalType":"string"}],"stateMutability":"view"},{"type":"function","name":"getLastScoreRequest","inputs":[],"outputs":[{"name":"","type":"uint256","internalType":"uint256"},{"name":"","type":"address","internalType":"address"}],"stateMutability":"view"},{"type":"function","name":"getScoreResponse","inputs":[{"name":"requestId","type":"bytes32","internalType":"bytes32"}],"outputs":[{"name":"","type":"uint256","internalType":"uint256"},{"name":"","type":"string","internalType":"string"},{"name":"","type":"address","internalType":"address"}],"stateMutability":"view"},{"type":"function","name":"getVrfRequestStatus","inputs":[{"name":"_requestId","type":"uint256","internalType":"uint256"}],"outputs":[{"name":"fulfilled","type":"bool","internalType":"bool"},{"name":"randomWords","type":"uint256[]","internalType":"uint256[]"}],"stateMutability":"view"},{"type":"function","name":"getWinners","inputs":[{"name":"gameId","type":"uint256","internalType":"uint256"}],"outputs":[{"name":"","type":"address[]","internalType":"address[]"}],"stateMutability":"view"},{"type":"function","name":"handleOracleFulfillment","inputs":[{"name":"requestId","type":"bytes32","internalType":"bytes32"},{"name":"response","type":"bytes","internalType":"bytes"},{"name":"err","type":"bytes","internalType":"bytes"}],"outputs":[],"stateMutability":"nonpayable"},{"type":"function","name":"joinGame","inputs":[{"name":"_gameId","type":"uint256","internalType":"uint256"},{"name":"_score","type":"uint256","internalType":"uint256"}],"outputs":[],"stateMutability":"nonpayable"},{"type":"function","name":"nextGameId","inputs":[],"outputs":[{"name":"","type":"uint256","internalType":"uint256"}],"stateMutability":"view"},{"type":"function","name":"owner","inputs":[],"outputs":[{"name":"","type":"address","internalType":"address"}],"stateMutability":"view"},{"type":"function","name":"pause","inputs":[],"outputs":[],"stateMutability":"nonpayable"},{"type":"function","name":"paused","inputs":[],"outputs":[{"name":"","type":"bool","internalType":"bool"}],"stateMutability":"view"},{"type":"function","name":"performUpkeep","inputs":[{"name":"performData","type":"bytes","internalType":"bytes"}],"outputs":[],"stateMutability":"nonpayable"},{"type":"function","name":"rawFulfillRandomWords","inputs":[{"name":"requestId","type":"uint256","internalType":"uint256"},{"name":"randomWords","type":"uint256[]","internalType":"uint256[]"}],"outputs":[],"stateMutability":"nonpayable"},{"type":"function","name":"reclaimNFT","inputs":[{"name":"_gameId","type":"uint256","internalType":"uint256"}],"outputs":[],"stateMutability":"nonpayable"},{"type":"function","name":"requestRandomWords","inputs":[{"name":"_gameId","type":"uint256","internalType":"uint256"}],"outputs":[{"name":"requestId","type":"uint256","internalType":"uint256"}],"stateMutability":"nonpayable"},{"type":"function","name":"requestScoreForParticipant","inputs":[{"name":"_gameId","type":"uint256","internalType":"uint256"},{"name":"participant","type":"address","internalType":"address"}],"outputs":[{"name":"requestId","type":"bytes32","internalType":"bytes32"}],"stateMutability":"nonpayable"},{"type":"function","name":"s_lastError","inputs":[],"outputs":[{"name":"","type":"bytes","internalType":"bytes"}],"stateMutability":"view"},{"type":"function","name":"s_lastRequestId","inputs":[],"outputs":[{"name":"","type":"bytes32","internalType":"bytes32"}],"stateMutability":"view"},{"type":"function","name":"s_lastResponse","inputs":[],"outputs":[{"name":"","type":"bytes","internalType":"bytes"}],"stateMutability":"view"},{"type":"function","name":"s_vrfCoordinator","inputs":[],"outputs":[{"name":"","type":"address","internalType":"contract IVRFCoordinatorV2Plus"}],"stateMutability":"view"},{"type":"function","name":"s_vrfRequests","inputs":[{"name":"","type":"uint256","internalType":"uint256"}],"outputs":[{"name":"fulfilled","type":"bool","internalType":"bool"},{"name":"exists","type":"bool","internalType":"bool"},{"name":"gameId","type":"uint256","internalType":"uint256"}],"stateMutability":"view"},{"type":"function","name":"setCoordinator","inputs":[{"name":"_vrfCoordinator","type":"address","internalType":"address"}],"outputs":[],"stateMutability":"nonpayable"},{"type":"function","name":"transferOwnership","inputs":[{"name":"to","type":"address","internalType":"address"}],"outputs":[],"stateMutability":"nonpayable"},{"type":"function","name":"unpause","inputs":[],"outputs":[],"stateMutability":"nonpayable"},{"type":"function","name":"vrfLastRequestId","inputs":[],"outputs":[{"name":"","type":"uint256","internalType":"uint256"}],"stateMutability":"view"},{"type":"function","name":"vrfRequestIds","inputs":[{"name":"","type":"uint256","internalType":"uint256"}],"outputs":[{"name":"","type":"uint256","internalType":"uint256"}],"stateMutability":"view"},{"type":"event","name":"CheckedUpkeep","inputs":[{"name":"activeGame","type":"bool","indexed":false,"internalType":"bool"},{"name":"hasPassed","type":"bool","indexed":false,"internalType":"bool"},{"name":"hasPlayers","type":"bool","indexed":false,"internalType":"bool"},{"name":"blockTimestamp","type":"uint256","indexed":false,"internalType":"uint256"}],"anonymous":false},{"type":"event","name":"CoordinatorSet","inputs":[{"name":"vrfCoordinator","type":"address","indexed":false,"internalType":"address"}],"anonymous":false},{"type":"event","name":"GameCreated","inputs":[{"name":"gameId","type":"uint256","indexed":true,"internalType":"uint256"},{"name":"startTime","type":"uint256","indexed":false,"internalType":"uint256"},{"name":"endTime","type":"uint256","indexed":false,"internalType":"uint256"}],"anonymous":false},{"type":"event","name":"GameEnded","inputs":[{"name":"gameId","type":"uint256","indexed":true,"internalType":"uint256"}],"anonymous":false},{"type":"event","name":"NFTClaimed","inputs":[{"name":"gameId","type":"uint256","indexed":true,"internalType":"uint256"},{"name":"winner","type":"address","indexed":true,"internalType":"address"}],"anonymous":false},{"type":"event","name":"NFTDeposited","inputs":[{"name":"gameId","type":"uint256","indexed":true,"internalType":"uint256"},{"name":"nftContract","type":"address","indexed":true,"internalType":"address"},{"name":"tokenId","type":"uint256","indexed":false,"internalType":"uint256"},{"name":"depositor","type":"address","indexed":true,"internalType":"address"}],"anonymous":false},{"type":"event","name":"NFTReclaimed","inputs":[{"name":"gameId","type":"uint256","indexed":true,"internalType":"uint256"},{"name":"winner","type":"address","indexed":true,"internalType":"address"}],"anonymous":false},{"type":"event","name":"OwnershipTransferRequested","inputs":[{"name":"from","type":"address","indexed":true,"internalType":"address"},{"name":"to","type":"address","indexed":true,"internalType":"address"}],"anonymous":false},{"type":"event","name":"OwnershipTransferred","inputs":[{"name":"from","type":"address","indexed":true,"internalType":"address"},{"name":"to","type":"address","indexed":true,"internalType":"address"}],"anonymous":false},{"type":"event","name":"ParticipantJoinedGame","inputs":[{"name":"gameId","type":"uint256","indexed":true,"internalType":"uint256"},{"name":"participant","type":"address","indexed":true,"internalType":"address"}],"anonymous":false},{"type":"event","name":"Paused","inputs":[{"name":"account","type":"address","indexed":false,"internalType":"address"}],"anonymous":false},{"type":"event","name":"RequestFulfilled","inputs":[{"name":"id","type":"bytes32","indexed":true,"internalType":"bytes32"}],"anonymous":false},{"type":"event","name":"RequestSent","inputs":[{"name":"id","type":"bytes32","indexed":true,"internalType":"bytes32"}],"anonymous":false},{"type":"event","name":"Response","inputs":[{"name":"requestId","type":"bytes32","indexed":true,"internalType":"bytes32"},{"name":"response","type":"bytes","indexed":false,"internalType":"bytes"},{"name":"err","type":"bytes","indexed":false,"internalType":"bytes"}],"anonymous":false},{"type":"event","name":"Score","inputs":[{"name":"gameId","type":"uint256","indexed":true,"internalType":"uint256"},{"name":"participant","type":"address","indexed":true,"internalType":"address"},{"name":"score","type":"uint256","indexed":false,"internalType":"uint256"}],"anonymous":false},{"type":"event","name":"Unpaused","inputs":[{"name":"account","type":"address","indexed":false,"internalType":"address"}],"anonymous":false},{"type":"event","name":"VrfRequestFulfilled","inputs":[{"name":"requestId","type":"uint256","indexed":false,"internalType":"uint256"},{"name":"gameId","type":"uint256","indexed":false,"internalType":"uint256"}],"anonymous":false},{"type":"event","name":"VrfRequestSent","inputs":[{"name":"requestId","type":"uint256","indexed":false,"internalType":"uint256"},{"name":"numWords","type":"uint32","indexed":false,"internalType":"uint32"}],"anonymous":false},{"type":"event","name":"WinnerFulfilled","inputs":[{"name":"gameId","type":"uint256","indexed":true,"internalType":"uint256"},{"name":"winnerIndex","type":"uint256","indexed":true,"internalType":"uint256"}],"anonymous":false},{"type":"error","name":"EmptyArgs","inputs":[]},{"type":"error","name":"EmptySource","inputs":[]},{"type":"error","name":"EnforcedPause","inputs":[]},{"type":"error","name":"ExpectedPause","inputs":[]},{"type":"error","name":"GameDoesNotExist","inputs":[{"name":"gameId","type":"uint256","internalType":"uint256"}]},{"type":"error","name":"NoInlineSecrets","inputs":[]},{"type":"error","name":"OnlyCoordinatorCanFulfill","inputs":[{"name":"have","type":"address","internalType":"address"},{"name":"want","type":"address","internalType":"address"}]},{"type":"error","name":"OnlyOwnerOrCoordinator","inputs":[{"name":"have","type":"address","internalType":"address"},{"name":"owner","type":"address","internalType":"address"},{"name":"coordinator","type":"address","internalType":"address"}]},{"type":"error","name":"OnlyRouterCanFulfill","inputs":[]},{"type":"error","name":"ParticipantAlreadyInGame","inputs":[{"name":"gameId","type":"uint256","internalType":"uint256"},{"name":"participant","type":"address","internalType":"address"}]},{"type":"error","name":"Raffle__UpkeepNotNeeded","inputs":[]},{"type":"error","name":"StringsInsufficientHexLength","inputs":[{"name":"value","type":"uint256","internalType":"uint256"},{"name":"length","type":"uint256","internalType":"uint256"}]},{"type":"error","name":"UnexpectedRequestID","inputs":[{"name":"requestId","type":"bytes32","internalType":"bytes32"}]},{"type":"error","name":"ZeroAddress","inputs":[]}],"bytecode":{"object":"0x60c06040527f1770bdc7eec7771f7ba4ffd640f34260d7f095b79c92d34a5b2551d6f6cfd2be600855600980546001600160501b03191666020003002625a01790556000600b553480156200005357600080fd5b50604051620047de380380620047de8339810160408190526200007691620002de565b6001600160a01b0388166080528181803380600081620000dd5760405162461bcd60e51b815260206004820152601860248201527f43616e6e6f7420736574206f776e657220746f207a65726f000000000000000060448201526064015b60405180910390fd5b600080546001600160a01b0319166001600160a01b038481169190911790915581161562000110576200011081620001e8565b5050506001600160a01b0381166200013b5760405163d92e233d60e01b815260040160405180910390fd5b600280546001600160a01b03199081166001600160a01b0393841617909155600480548216938316939093179092556005929092556009805460ff60501b1916905560108054909116918a169190911790556012879055601480546001600160401b0388166001600160481b0319909116176801000000000000000060ff8816021790556011620001cd8582620004ba565b5050506001600160401b031660a05250620005869350505050565b336001600160a01b03821603620002425760405162461bcd60e51b815260206004820152601760248201527f43616e6e6f74207472616e7366657220746f2073656c660000000000000000006044820152606401620000d4565b600180546001600160a01b0319166001600160a01b0383811691821790925560008054604051929316917fed8889f560326eb138920d842192f0eb3dd22b4f139c87a2c57538e05bae12789190a350565b80516001600160a01b0381168114620002ab57600080fd5b919050565b80516001600160401b0381168114620002ab57600080fd5b634e487b7160e01b600052604160045260246000fd5b600080600080600080600080610100898b031215620002fc57600080fd5b620003078962000293565b97506020808a015197506200031f60408b01620002b0565b965060608a015160ff811681146200033657600080fd5b60808b01519096506001600160401b03808211156200035457600080fd5b818c0191508c601f8301126200036957600080fd5b8151818111156200037e576200037e620002c8565b604051601f8201601f19908116603f01168101908382118183101715620003a957620003a9620002c8565b816040528281528f86848701011115620003c257600080fd5b600093505b82841015620003e65784840186015181850187015292850192620003c7565b60008684830101528099505050505050506200040560a08a01620002b0565b925060c089015191506200041c60e08a0162000293565b90509295985092959890939650565b600181811c908216806200044057607f821691505b6020821081036200046157634e487b7160e01b600052602260045260246000fd5b50919050565b601f821115620004b557600081815260208120601f850160051c81016020861015620004905750805b601f850160051c820191505b81811015620004b1578281556001016200049c565b5050505b505050565b81516001600160401b03811115620004d657620004d6620002c8565b620004ee81620004e784546200042b565b8462000467565b602080601f8311600181146200052657600084156200050d5750858301515b600019600386901b1c1916600185901b178555620004b1565b600085815260208120601f198616915b82811015620005575788860151825594840194600190910190840162000536565b5085821015620005765787850151600019600388901b60f8161c191681555b5050505050600190811b01905550565b60805160a05161422b620005b360003960006114450152600081816108940152612c47015261422b6000f3fe608060405234801561001057600080fd5b50600436106102955760003560e01c80636b1426a411610167578063a08db82e116100ce578063c0722c9911610087578063c0722c99146106ed578063d0399bb8146106f5578063d03ae0aa14610708578063ee7bdc4f1461072a578063f2fde38b1461074d578063fe5c873a1461076057600080fd5b8063a08db82e1461067f578063b131d05314610692578063b135bbb0146106b5578063b1e21749146106be578063b60b9fcb146106c7578063bc85777c146106da57600080fd5b80637d6f643b116101205780637d6f643b1461061a5780638456cb591461062d5780638a8da05b146106355780638da5cb5b146106485780638ea98117146106595780639eccacf61461066c57600080fd5b80636b1426a4146105815780636e04ff0d146105945780636f6410fd146105b557806379ba5097146105c85780637ad40c86146105d05780637d058d4f1461061157600080fd5b8063425c9fa21161020b5780635455d59c116101c45780635455d59c146104d657806355985b8f146105155780635ab59312146105365780635c975abb1461054957806360104cef1461055b5780636554e38a1461056e57600080fd5b8063425c9fa21461046d5780634585e33b1461048057806345fa95491461049357806347828219146104b35780634b0795a8146104c6578063503f0475146104ce57600080fd5b806319c2b4c31161025d57806319c2b4c3146103c55780631fe543e3146103d75780632da27092146103ea5780633944ea3a1461043b5780633c256b24146104505780633f4ba83a1461046557600080fd5b80630411ac751461029a57806307119431146102af5780630ca76175146102d9578063117a5b90146102ec578063185e21871461038f575b600080fd5b6102ad6102a8366004613727565b610773565b005b6102c26102bd366004613727565b610786565b6040516102d092919061377b565b60405180910390f35b6102ad6102e7366004613838565b610889565b6103486102fa366004613727565b600a60208190526000918252604090912080546001820154600283015460038401546008850154600986015495909601546001600160a01b03948516969395929460ff928316941692911687565b604080516001600160a01b03988916815260208101979097528601949094529115156060850152909316608083015260a082019290925290151560c082015260e0016102d0565b6103b561039d366004613727565b6000908152600a602052604090206003015460ff1690565b60405190151581526020016102d0565b600d545b6040519081526020016102d0565b6102ad6103e53660046138a4565b61090d565b61041e6103f8366004613727565b6003602052600090815260409020805460029091015460ff808316926101009004169083565b6040805193151584529115156020840152908201526060016102d0565b61044361095d565b6040516102d09190613968565b6104586109eb565b6040516102d0919061397b565b6102ad610a51565b6103c961047b366004613727565b610a63565b6102ad61048e36600461398e565b610a84565b6104a66104a1366004613727565b610afc565b6040516102d09190613a38565b6102ad6104c1366004613a4b565b610b6b565b610443610d4a565b610443610d57565b600d54600090815260156020526040902080546001909101546001600160a01b0316604080519283526001600160a01b039091166020830152016102d0565b610528610523366004613727565b610de0565b6040516102d0929190613a6d565b610443610544366004613af6565b610fc9565b600954600160501b900460ff166103b5565b6102ad610569366004613a4b565b610fda565b6103c961057c366004613b11565b61110c565b6104a661058f366004613727565b6114cc565b6105a76105a2366004613b3d565b611539565b6040516102d0929190613b71565b6104436105c3366004613b11565b6115f7565b6102ad6116b1565b6105f96105de366004613727565b6000908152600a60205260409020546001600160a01b031690565b6040516001600160a01b0390911681526020016102d0565b6103c960075481565b6102ad610628366004613b8c565b61175b565b6102ad6118e9565b6102ad610643366004613727565b6118f9565b6000546001600160a01b03166105f9565b6102ad610667366004613af6565b611a38565b6002546105f9906001600160a01b031681565b6102ad61068d366004613727565b611b2a565b6103c96106a0366004613727565b6000908152600a602052604090206001015490565b6103c9600b5481565b6103c9600d5481565b6102ad6106d5366004613a4b565b611cf9565b6103c96106e8366004613727565b611f20565b6102ad61211c565b6102ad610703366004613727565b61212c565b61071b610716366004613727565b61225b565b6040516102d093929190613bc1565b6103c9610738366004613727565b6000908152600a602052604090206002015490565b6102ad61075b366004613af6565b612322565b6102ad61076e366004613727565b612336565b610781426105698382613c08565b600c55565b600081815260036020526040812054606090610100900460ff166107e55760405162461bcd60e51b81526020600482015260116024820152701c995c5d595cdd081b9bdd08199bdd5b99607a1b60448201526064015b60405180910390fd5b60008381526003602090815260408083208151608081018352815460ff808216151583526101009091041615158185015260018201805484518187028101870186528181529295939486019383018282801561086057602002820191906000526020600020905b81548152602001906001019080831161084c575b505050505081526020016002820154815250509050806000015181604001519250925050915091565b336001600160a01b037f000000000000000000000000000000000000000000000000000000000000000016146108d25760405163c6829f8360e01b815260040160405180910390fd5b6108dd83838361259d565b60405183907f85e1543bf2f84fe80c6badbce3648c8539ad1df4d2b3d822938ca0538be727e690600090a2505050565b6002546001600160a01b0316331461094d5760025460405163073e64fd60e21b81523360048201526001600160a01b0390911660248201526044016107dc565b6109588383836126ae565b505050565b600e805461096a90613c1b565b80601f016020809104026020016040519081016040528092919081815260200182805461099690613c1b565b80156109e35780601f106109b8576101008083540402835291602001916109e3565b820191906000526020600020905b8154815290600101906020018083116109c657829003601f168201915b505050505081565b600754600090815260036020908152604091829020600101805483518184028101840190945280845260609392830182828015610a4757602002820191906000526020600020905b815481526020019060010190808311610a33575b5050505050905090565b610a596127df565b610a61612832565b565b60068181548110610a7357600080fd5b600091825260209091200154905081565b6000808080610a9585870187613c65565b93509350935093507ffbd4dd195fd0b96a07b166a978fd395f5a414e87941d8a1c653eae647242a6b984848484604051610aec94939291909315158452911515602084015215156040830152606082015260800190565b60405180910390a1505050505050565b6000818152600a6020908152604091829020600401805483518184028101840190945280845260609392830182828015610b5f57602002820191906000526020600020905b81546001600160a01b03168152600190910190602001808311610b41575b50505050509050919050565b610b736127df565b6000828152600a602052604090206003015460ff1615610ba55760405162461bcd60e51b81526004016107dc90613cb0565b6000828152600a6020526040902060040154610bfc5760405162461bcd60e51b81526020600482015260166024820152752737903830b93a34b1b4b830b73a39903337bab7321760511b60448201526064016107dc565b6000828152600a602052604090206007015415610c545760405162461bcd60e51b81526020600482015260166024820152752bb4b73732b9399030b63932b0b23c903337bab7321760511b60448201526064016107dc565b6000828152600a60205260409020600401548110610cb45760405162461bcd60e51b815260206004820152601a60248201527f57696e6e657220696e646578206f7574206f6620626f756e647300000000000060448201526064016107dc565b6000828152600a6020526040902060048101805460079092019183908110610cde57610cde613cdf565b6000918252602080832090910154835460018101855593835290822090920180546001600160a01b0319166001600160a01b0390931692909217909155604051829184917f77b599fb56acd5a19d4eac13cb5da247718c5f24068b408fc99fbfcb85ebd8909190a35050565b600f805461096a90613c1b565b6060600e8054610d6690613c1b565b80601f0160208091040260200160405190810160405280929190818152602001828054610d9290613c1b565b8015610a475780601f10610db457610100808354040283529160200191610a47565b820191906000526020600020905b815481529060010190602001808311610dc257509395945050505050565b6060806000600a6000858152602001908152602001600020600401805480602002602001604051908101604052809291908181526020018280548015610e4f57602002820191906000526020600020905b81546001600160a01b03168152600190910190602001808311610e31575b50505050509050600081516001600160401b03811115610e7157610e71613796565b604051908082528060200260200182016040528015610ea457816020015b6060815260200190600190039081610e8f5790505b50905060005b8251811015610fbe57600a60008781526020019081526020016000206006016000848381518110610edd57610edd613cdf565b60200260200101516001600160a01b03166001600160a01b031681526020019081526020016000208054610f1090613c1b565b80601f0160208091040260200160405190810160405280929190818152602001828054610f3c90613c1b565b8015610f895780601f10610f5e57610100808354040283529160200191610f89565b820191906000526020600020905b815481529060010190602001808311610f6c57829003601f168201915b5050505050828281518110610fa057610fa0613cdf565b60200260200101819052508080610fb690613cf5565b915050610eaa565b509094909350915050565b6060610fd482612887565b92915050565b8181116110345760405162461bcd60e51b815260206004820152602260248201527f456e642074696d65206d7573742062652061667465722073746172742074696d604482015261329760f11b60648201526084016107dc565b600b546000908152600a6020908152604080832080546001600160a01b0319163317815560018082018790556002820186905560038201805460ff191690911790558151938452918301908190529151909161109591600484019190613602565b5060408051600081526020810191829052516110b5916007840191613602565b50600b5460408051858152602081018590527fbd3f84a55fdc44f970adc6ccbaa93e78d7da5f3fc37c4b7da578d47c9ad2e46a910160405180910390a2600b805490600061110283613cf5565b9190505550505050565b6000828152600a602090815260408083206001600160a01b03851684526005019091528120548390839060ff1661119e5760405162461bcd60e51b815260206004820152603060248201527f476976656e2061646472657373206973206e6f7420612070617274696369706160448201526f373a1034b7103a3434b99033b0b6b29760811b60648201526084016107dc565b6000858152600a602052604090206003015460ff166111cf5760405162461bcd60e51b81526004016107dc90613d0e565b6000858152600a6020526040902060010154421080159061120157506000858152600a60205260409020600201544211155b6112575760405162461bcd60e51b815260206004820152602160248201527f47616d65206973206e6f742077697468696e2061637469766520706572696f646044820152601760f91b60648201526084016107dc565b6000858152600a60205260409020546001600160a01b031633146112d25760405162461bcd60e51b815260206004820152602c60248201527f4f6e6c79207468652067616d652063726561746f722063616e2072657175657360448201526b3a103a34329039b1b7b9329760a11b60648201526084016107dc565b6113136040805160e0810190915280600081526020016000815260200160008152602001606081526020016060815260200160608152602001606081525090565b6113b06011805461132390613c1b565b80601f016020809104026020016040519081016040528092919081815260200182805461134f90613c1b565b801561139c5780601f106113715761010080835404028352916020019161139c565b820191906000526020600020905b81548152906001019060200180831161137f57829003601f168201915b50505050508261289d90919063ffffffff16565b60408051600280825260608201909252600091816020015b60608152602001906001900390816113c85790505090506113e8876128ae565b816000815181106113fb576113fb613cdf565b602002602001018190525061140f86610fc9565b8160018151811061142257611422613cdf565b60209081029190910101526114378282612940565b6114706114438361296a565b7f0000000000000000000000000000000000000000000000000000000000000000620493e0601254612c42565b600d818155604080518082018252998a526001600160a01b039889166020808c019182526000948552601590529220985189559051600190980180546001600160a01b0319169890971697909717909555505092549392505050565b6000818152600a6020908152604091829020600701805483518184028101840190945280845260609392830182828015610b5f576020028201919060005260206000209081546001600160a01b03168152600190910190602001808311610b415750505050509050919050565b60006060815b600b548110156115f1576000818152600a602052604081206003810154600c5460019092015460ff9091169291906115779042613d3b565b6000858152600a60205260409020600401549110915015158280156115995750805b156115db5760408051841515602082015283151591810191909152811515606082015242608082015260a0016040516020818303038152906040529450600195505b50505080806115e990613cf5565b91505061153f565b50915091565b6000828152600a602090815260408083206001600160a01b0385168452600601909152902080546060919061162b90613c1b565b80601f016020809104026020016040519081016040528092919081815260200182805461165790613c1b565b80156116a45780601f10611679576101008083540402835291602001916116a4565b820191906000526020600020905b81548152906001019060200180831161168757829003601f168201915b5050505050905092915050565b6001546001600160a01b031633146117045760405162461bcd60e51b815260206004820152601660248201527526bab9ba10313290383937b837b9b2b21037bbb732b960511b60448201526064016107dc565b60008054336001600160a01b0319808316821784556001805490911690556040516001600160a01b0390921692909183917f8be0079c531659141344cd1fd0a4f28419497f9722a3daafe3b4186f6b6457e091a350565b6000838152600a60205260409020546001600160a01b031633146117d45760405162461bcd60e51b815260206004820152602a60248201527f4f6e6c79207468652067616d652063726561746f722063616e206465706f73696044820152693a103a34329027232a1760b11b60648201526084016107dc565b6000838152600a602052604090206003015460ff166118055760405162461bcd60e51b81526004016107dc90613d0e565b6040516323b872dd60e01b8152336004820152306024820152604481018290526001600160a01b038316906323b872dd90606401600060405180830381600087803b15801561185357600080fd5b505af1158015611867573d6000803e3d6000fd5b5050506000848152600a60208181526040928390206008810180546001600160a01b0319166001600160a01b038916908117909155600982018790559201805460ff191690559151848152339350909186917f8e0fba0f28f504542af1cd9bf5b599299bd212bd44a7dc5c5658010e13ffd31e910160405180910390a4505050565b6118f16127df565b610a61612d14565b6119016127df565b60008181526003602090815260408083206001018054825181850281018501909352808352919290919083018282801561195a57602002820191906000526020600020905b815481526020019060010190808311611946575b5050506000858152600360205260408120600201549394509150505b8251811015611a32576000828152600a602052604081206004015484518590849081106119a5576119a5613cdf565b60200260200101516119b79190613d4e565b6000848152600a60205260409020600481018054929350600790910191839081106119e4576119e4613cdf565b60009182526020808320909101548354600181018555938352912090910180546001600160a01b0319166001600160a01b039092169190911790555080611a2a81613cf5565b915050611976565b50505050565b6000546001600160a01b03163314801590611a5e57506002546001600160a01b03163314155b15611aaf5733611a766000546001600160a01b031690565b60025460405163061db9c160e01b81526001600160a01b03938416600482015291831660248301529190911660448201526064016107dc565b6001600160a01b038116611ad65760405163d92e233d60e01b815260040160405180910390fd5b600280546001600160a01b0319166001600160a01b0383169081179091556040519081527fd1a6a14209a385a964d036e404cb5cfb71f4000cdb03c9366292430787261be69060200160405180910390a150565b6000818152600a60205260409020546001600160a01b03163314611ba35760405162461bcd60e51b815260206004820152602a60248201527f4f6e6c79207468652067616d652063726561746f722063616e207265636c616960448201526936903a34329027232a1760b11b60648201526084016107dc565b6000818152600a602052604090206003015460ff1615611bd55760405162461bcd60e51b81526004016107dc90613cb0565b6000818152600a60208190526040909120015460ff1615611c2f5760405162461bcd60e51b815260206004820152601460248201527327232a1030b63932b0b23c9031b630b4b6b2b21760611b60448201526064016107dc565b6000818152600a602052604090819020600881015460099091015491516323b872dd60e01b815230600482015233602482015260448101929092526001600160a01b0316906323b872dd90606401600060405180830381600087803b158015611c9757600080fd5b505af1158015611cab573d6000803e3d6000fd5b5050506000828152600a60208190526040808320909101805460ff191660011790555133925083917f56c922176dd9b2a1fdcf8a3aa048b543fc88a2750fcd5341c0b635bb9d11f81791a350565b6000828152600a602052604090206003015460ff16611d2a5760405162461bcd60e51b81526004016107dc90613d0e565b6000828152600a6020526040902060010154421015611d8b5760405162461bcd60e51b815260206004820152601960248201527f47616d6520686173206e6f742073746172746564207965742e0000000000000060448201526064016107dc565b6000828152600a6020526040902060020154421115611dec5760405162461bcd60e51b815260206004820152601760248201527f47616d652068617320616c726561647920656e6465642e00000000000000000060448201526064016107dc565b6000828152600a6020908152604080832033845260050190915290205460ff161515600103611e375760405163547daa4560e11b8152600481018390523360248201526044016107dc565b6000828152600a60209081526040808320600481018054600181810183559186528486200180546001600160a01b0319163390811790915585526005909101909252909120805460ff19169091179055611e90816128ae565b6000838152600a60209081526040808320338452600601909152902090611eb79082613dbe565b50604051339083907f094906a9ec808476f8ae6475fedc23cbe15d386768dec2d2c9a604c69f66b96090600090a3604051818152339083907f7f6232e56f99882679dee2e75a9c85c9491c7c7f70fd53590e8c0f87d3e1b2959060200160405180910390a35050565b6000611f2a6127df565b6004546040805160c081018252600854815260055460208083019190915260095461ffff6401000000008204168385015263ffffffff808216606085015266010000000000009091041660808301528251908101909252600082526001600160a01b0390921691639b1c385e9160a0820190611fa590612d57565b8152506040518263ffffffff1660e01b8152600401611fc49190613e7d565b6020604051808303816000875af1158015611fe3573d6000803e3d6000fd5b505050506040513d601f19601f820116820180604052508101906120079190613eda565b6040805160808101825260008082526001602080840182815285518481528083018752858701908152606086018a9052878552600383529590932084518154945161ffff1990951690151561ff001916176101009415159490940293909317835593518051959650929491936120839391850192910190613667565b5060609190910151600290910155600680546001810182556000919091527ff652222313e28459528d920b65115c16c04f3efc82aaedc97be59f3f377c0d3f01819055600781905560095460408051838152660100000000000090920463ffffffff1660208301527fb478b40bf0d6ab2120b57e456db91df45395850da43f8b7a6f16c4b0568e17b8910160405180910390a15b919050565b610a614261056981610e10613c08565b6000818152600a60205260409020546001600160a01b031633148061215b57506000546001600160a01b031633145b6121b75760405162461bcd60e51b815260206004820152602760248201527f4f6e6c79207468652067616d652063726561746f722063616e20656e64207468604482015266329033b0b6b29760c91b60648201526084016107dc565b6000818152600a602052604090206003015460ff166122185760405162461bcd60e51b815260206004820152601960248201527f47616d6520697320616c726561647920696e6163746976652e0000000000000060448201526064016107dc565b6000818152600a6020526040808220600301805460ff191690555182917fce24807f7e4b60b4e641462f13029fa5e5f79075bbc3f8e5cd43ecd19661d76091a250565b60008181526016602052604081208054600282015460019092018054606093859392916001600160a01b0390911690829061229590613c1b565b80601f01602080910402602001604051908101604052809291908181526020018280546122c190613c1b565b801561230e5780601f106122e35761010080835404028352916020019161230e565b820191906000526020600020905b8154815290600101906020018083116122f157829003601f168201915b505050505091509250925092509193909250565b61232a6127df565b61233381612dc8565b50565b6000818152600a602052604090206003015460ff16156123685760405162461bcd60e51b81526004016107dc90613cb0565b6000818152600a60208190526040909120015460ff16156123c25760405162461bcd60e51b815260206004820152601460248201527327232a1030b63932b0b23c9031b630b4b6b2b21760611b60448201526064016107dc565b6000818152600a60205260409020600701546124145760405162461bcd60e51b81526020600482015260116024820152702737903bb4b73732b939903337bab7321760791b60448201526064016107dc565b6000805b6000838152600a602052604090206007015481101561248c576000838152600a6020526040902060070180543391908390811061245757612457613cdf565b6000918252602090912001546001600160a01b03160361247a576001915061248c565b8061248481613cf5565b915050612418565b50806124d25760405162461bcd60e51b81526020600482015260156024820152742cb7ba9030b932903737ba1030903bb4b73732b91760591b60448201526064016107dc565b6000828152600a602052604090819020600881015460099091015491516323b872dd60e01b815230600482015233602482015260448101929092526001600160a01b0316906323b872dd90606401600060405180830381600087803b15801561253a57600080fd5b505af115801561254e573d6000803e3d6000fd5b5050506000838152600a60208190526040808320909101805460ff191660011790555133925084917fec5f0dee1fc3c7beab746dbd5883eee3f1c9bc07fe02dd318c553c5243f52fea91a35050565b6125a5612e71565b6000838152601560205260409020600181015490546001600160a01b0390911690600e6125d28582613dbe565b506040805160608101825282815260208082018781526001600160a01b0386168385015260008981526016909252929020815181559151909190600182019061261b9082613dbe565b5060409182015160029190910180546001600160a01b0319166001600160a01b039283161790556000838152600a6020908152838220928616825260069092019091522061266a600e82613ef3565b50847f7873807bf6ddc50401cd3d29bbe0decee23fd4d68d273f4b5eb83cded4d2f172600e600f60405161269f92919061404a565b60405180910390a25050505050565b600083815260036020526040902054610100900460ff166127055760405162461bcd60e51b81526020600482015260116024820152701c995c5d595cdd081b9bdd08199bdd5b99607a1b60448201526064016107dc565b60008381526003602052604090205460ff16156127645760405162461bcd60e51b815260206004820152601960248201527f5265717565737420616c72656164792066756c66696c6c65640000000000000060448201526064016107dc565b6000838152600360205260409020805460ff19166001908117825561278b910183836136a2565b50600083815260036020908152604091829020600201548251868152918201819052917f8b374a54afa880e6437b5a3523d974ab891c4f5df05bab48a27b97a71472cb79910160405180910390a150505050565b6000546001600160a01b03163314610a615760405162461bcd60e51b815260206004820152601660248201527527b7363c9031b0b63630b1363290313c9037bbb732b960511b60448201526064016107dc565b61283a612e9c565b6009805460ff60501b191690557f5db9ee0a495bf2e6ff9c91a7834c1ba4fdd244a5e8aa4e537bd38aeae4b073aa335b6040516001600160a01b03909116815260200160405180910390a1565b6060610fd46001600160a01b0383166014612ec6565b6128aa8260008084613045565b5050565b606060006128bb836130c3565b60010190506000816001600160401b038111156128da576128da613796565b6040519080825280601f01601f191660200182016040528015612904576020820181803683370190505b5090508181016020015b600019016f181899199a1a9b1b9c1cb0b131b232b360811b600a86061a8153600a850494508461290e57509392505050565b80516000036129625760405163fe936cb760e01b815260040160405180910390fd5b60a090910152565b6060600061297961010061319b565b90506129b26040518060400160405280600c81526020016b31b7b232a637b1b0ba34b7b760a11b815250826131bc90919063ffffffff16565b82516129d09060028111156129c9576129c9614078565b82906131d5565b6040805180820190915260088152676c616e677561676560c01b60208201526129fa9082906131bc565b6040830151612a119080156129c9576129c9614078565b604080518082019091526006815265736f7572636560d01b6020820152612a399082906131bc565b6060830151612a499082906131bc565b60a08301515115612add576040805180820190915260048152636172677360e01b6020820152612a7a9082906131bc565b612a838161320e565b60005b8360a0015151811015612ad357612ac38460a001518281518110612aac57612aac613cdf565b6020026020010151836131bc90919063ffffffff16565b612acc81613cf5565b9050612a86565b50612add81613232565b60808301515115612ba157600083602001516002811115612b0057612b00614078565b03612b1e5760405163a80d31f760e01b815260040160405180910390fd5b60408051808201909152600f81526e39b2b1b932ba39a637b1b0ba34b7b760891b6020820152612b4f9082906131bc565b612b68836020015160028111156129c9576129c9614078565b6040805180820190915260078152667365637265747360c81b6020820152612b919082906131bc565b6080830151612ba1908290613250565b60c08301515115612c3a5760408051808201909152600981526862797465734172677360b81b6020820152612bd79082906131bc565b612be08161320e565b60005b8360c0015151811015612c3057612c208460c001518281518110612c0957612c09613cdf565b60200260200101518361325090919063ffffffff16565b612c2981613cf5565b9050612be3565b50612c3a81613232565b515192915050565b6000807f00000000000000000000000000000000000000000000000000000000000000006001600160a01b031663461d27628688600188886040518663ffffffff1660e01b8152600401612c9a95949392919061408e565b6020604051808303816000875af1158015612cb9573d6000803e3d6000fd5b505050506040513d601f19601f82011682018060405250810190612cdd9190613eda565b60405190915081907f1131472297a800fee664d1d89cfa8f7676ff07189ecc53f80bbb5f4969099db890600090a295945050505050565b612d1c612e71565b6009805460ff60501b1916600160501b1790557f62e78cea01bee320cd4e420270b5ea74000d11b0c9f74754ebdbfc544b05a25861286a3390565b60607f92fd13387c7fe7befbc38d303d6468778fb9731bc4583f17d92989c6fcfdeaaa82604051602401612d9091511515815260200190565b60408051601f198184030181529190526020810180516001600160e01b03166001600160e01b03199093169290921790915292915050565b336001600160a01b03821603612e205760405162461bcd60e51b815260206004820152601760248201527f43616e6e6f74207472616e7366657220746f2073656c6600000000000000000060448201526064016107dc565b600180546001600160a01b0319166001600160a01b0383811691821790925560008054604051929316917fed8889f560326eb138920d842192f0eb3dd22b4f139c87a2c57538e05bae12789190a350565b600954600160501b900460ff1615610a615760405163d93c066560e01b815260040160405180910390fd5b600954600160501b900460ff16610a6157604051638dfc202b60e01b815260040160405180910390fd5b6060826000612ed68460026140d7565b612ee1906002613c08565b6001600160401b03811115612ef857612ef8613796565b6040519080825280601f01601f191660200182016040528015612f22576020820181803683370190505b509050600360fc1b81600081518110612f3d57612f3d613cdf565b60200101906001600160f81b031916908160001a905350600f60fb1b81600181518110612f6c57612f6c613cdf565b60200101906001600160f81b031916908160001a9053506000612f908560026140d7565b612f9b906001613c08565b90505b6001811115613013576f181899199a1a9b1b9c1cb0b131b232b360811b83600f1660108110612fcf57612fcf613cdf565b1a60f81b828281518110612fe557612fe5613cdf565b60200101906001600160f81b031916908160001a90535060049290921c9161300c816140ee565b9050612f9e565b50811561303d5760405163e22e27eb60e01b815260048101869052602481018590526044016107dc565b949350505050565b8051600003613067576040516322ce3edd60e01b815260040160405180910390fd5b8383600281111561307a5761307a614078565b9081600281111561308d5761308d614078565b905250604084018280156130a3576130a3614078565b908180156130b3576130b3614078565b9052506060909301929092525050565b60008072184f03e93ff9f4daa797ed6e38ed64bf6a1f0160401b83106131025772184f03e93ff9f4daa797ed6e38ed64bf6a1f0160401b830492506040015b6d04ee2d6d415b85acef8100000000831061312e576d04ee2d6d415b85acef8100000000830492506020015b662386f26fc10000831061314c57662386f26fc10000830492506010015b6305f5e1008310613164576305f5e100830492506008015b612710831061317857612710830492506004015b6064831061318a576064830492506002015b600a8310610fd45760010192915050565b6131a36136dd565b80516131af908361325d565b5060006020820152919050565b6131c982600383516132d4565b815161095890826133ed565b81516131e29060c2613415565b506128aa82826040516020016131fa91815260200190565b604051602081830303815290604052613250565b61321981600461347e565b60018160200181815161322c9190613c08565b90525050565b61323d81600761347e565b60018160200181815161322c9190613d3b565b6131c982600283516132d4565b60408051808201909152606081526000602082015261327d602083613d4e565b156132a55761328d602083613d4e565b613298906020613d3b565b6132a29083613c08565b91505b6020808401839052604051808552600081529081840101818110156132c957600080fd5b604052509192915050565b6017816001600160401b0316116132fa578251611a329060e0600585901b168317613415565b60ff816001600160401b03161161333a578251613322906018611fe0600586901b1617613415565b508251611a32906001600160401b0383166001613495565b61ffff816001600160401b03161161337b578251613363906019611fe0600586901b1617613415565b508251611a32906001600160401b0383166002613495565b63ffffffff816001600160401b0316116133be5782516133a690601a611fe0600586901b1617613415565b508251611a32906001600160401b0383166004613495565b82516133d590601b611fe0600586901b1617613415565b508251611a32906001600160401b0383166008613495565b60408051808201909152606081526000602082015261340e8383845161351a565b9392505050565b604080518082019091526060815260006020820152825151600061343a826001613c08565b90508460200151821061345b5761345b856134568360026140d7565b6135eb565b8451602083820101858153508051821115613474578181525b5093949350505050565b815161095890601f611fe0600585901b1617613415565b60408051808201909152606081526000602082015283515160006134b98285613c08565b905085602001518111156134d6576134d6866134568360026140d7565b600060016134e6866101006141e9565b6134f09190613d3b565b9050865182810187831982511617815250805183111561350e578281525b50959695505050505050565b604080518082019091526060815260006020820152825182111561353d57600080fd5b835151600061354c8483613c08565b9050856020015181111561356957613569866134568360026140d7565b855180518382016020019160009180851115613583578482525b505050602086015b602086106135c357805182526135a2602083613c08565b91506135af602082613c08565b90506135bc602087613d3b565b955061358b565b51815160001960208890036101000a0190811690199190911617905250849150509392505050565b81516135f7838361325d565b50611a3283826133ed565b828054828255906000526020600020908101928215613657579160200282015b8281111561365757825182546001600160a01b0319166001600160a01b03909116178255602090920191600190910190613622565b50613663929150613712565b5090565b828054828255906000526020600020908101928215613657579160200282015b82811115613657578251825591602001919060010190613687565b828054828255906000526020600020908101928215613657579160200282015b828111156136575782358255916020019190600101906136c2565b6040518060400160405280613705604051806040016040528060608152602001600081525090565b8152602001600081525090565b5b808211156136635760008155600101613713565b60006020828403121561373957600080fd5b5035919050565b600081518084526020808501945080840160005b8381101561377057815187529582019590820190600101613754565b509495945050505050565b821515815260406020820152600061303d6040830184613740565b634e487b7160e01b600052604160045260246000fd5b600082601f8301126137bd57600080fd5b81356001600160401b03808211156137d7576137d7613796565b604051601f8301601f19908116603f011681019082821181831017156137ff576137ff613796565b8160405283815286602085880101111561381857600080fd5b836020870160208301376000602085830101528094505050505092915050565b60008060006060848603121561384d57600080fd5b8335925060208401356001600160401b038082111561386b57600080fd5b613877878388016137ac565b9350604086013591508082111561388d57600080fd5b5061389a868287016137ac565b9150509250925092565b6000806000604084860312156138b957600080fd5b8335925060208401356001600160401b03808211156138d757600080fd5b818601915086601f8301126138eb57600080fd5b8135818111156138fa57600080fd5b8760208260051b850101111561390f57600080fd5b6020830194508093505050509250925092565b6000815180845260005b818110156139485760208185018101518683018201520161392c565b506000602082860101526020601f19601f83011685010191505092915050565b60208152600061340e6020830184613922565b60208152600061340e6020830184613740565b600080602083850312156139a157600080fd5b82356001600160401b03808211156139b857600080fd5b818501915085601f8301126139cc57600080fd5b8135818111156139db57600080fd5b8660208285010111156139ed57600080fd5b60209290920196919550909350505050565b600081518084526020808501945080840160005b838110156137705781516001600160a01b031687529582019590820190600101613a13565b60208152600061340e60208301846139ff565b60008060408385031215613a5e57600080fd5b50508035926020909101359150565b604081526000613a8060408301856139ff565b6020838203818501528185518084528284019150828160051b85010183880160005b83811015613ad057601f19878403018552613abe838351613922565b94860194925090850190600101613aa2565b50909998505050505050505050565b80356001600160a01b038116811461211757600080fd5b600060208284031215613b0857600080fd5b61340e82613adf565b60008060408385031215613b2457600080fd5b82359150613b3460208401613adf565b90509250929050565b600060208284031215613b4f57600080fd5b81356001600160401b03811115613b6557600080fd5b61303d848285016137ac565b821515815260406020820152600061303d6040830184613922565b600080600060608486031215613ba157600080fd5b83359250613bb160208501613adf565b9150604084013590509250925092565b838152606060208201526000613bda6060830185613922565b905060018060a01b0383166040830152949350505050565b634e487b7160e01b600052601160045260246000fd5b80820180821115610fd457610fd4613bf2565b600181811c90821680613c2f57607f821691505b602082108103613c4f57634e487b7160e01b600052602260045260246000fd5b50919050565b8035801515811461211757600080fd5b60008060008060808587031215613c7b57600080fd5b613c8485613c55565b9350613c9260208601613c55565b9250613ca060408601613c55565b9396929550929360600135925050565b60208082526015908201527423b0b6b29034b99039ba34b6361030b1ba34bb329760591b604082015260600190565b634e487b7160e01b600052603260045260246000fd5b600060018201613d0757613d07613bf2565b5060010190565b60208082526013908201527223b0b6b29034b9903737ba1030b1ba34bb329760691b604082015260600190565b81810381811115610fd457610fd4613bf2565b600082613d6b57634e487b7160e01b600052601260045260246000fd5b500690565b601f82111561095857600081815260208120601f850160051c81016020861015613d975750805b601f850160051c820191505b81811015613db657828155600101613da3565b505050505050565b81516001600160401b03811115613dd757613dd7613796565b613deb81613de58454613c1b565b84613d70565b602080601f831160018114613e205760008415613e085750858301515b600019600386901b1c1916600185901b178555613db6565b600085815260208120601f198616915b82811015613e4f57888601518255948401946001909101908401613e30565b5085821015613e6d5787850151600019600388901b60f8161c191681555b5050505050600190811b01905550565b60208152815160208201526020820151604082015261ffff60408301511660608201526000606083015163ffffffff80821660808501528060808601511660a0850152505060a083015160c08084015261303d60e0840182613922565b600060208284031215613eec57600080fd5b5051919050565b818103613efe575050565b613f088254613c1b565b6001600160401b03811115613f1f57613f1f613796565b613f2d81613de58454613c1b565b6000601f821160018114613f615760008315613f495750848201545b600019600385901b1c1916600184901b178455613fc6565b600085815260209020601f19841690600086815260209020845b83811015613f9b5782860154825560019586019590910190602001613f7b565b5085831015613fb95781850154600019600388901b60f8161c191681555b50505060018360011b0184555b5050505050565b60008154613fda81613c1b565b808552602060018381168015613ff757600181146140115761403f565b60ff1985168884015283151560051b88018301955061403f565b866000528260002060005b858110156140375781548a820186015290830190840161401c565b890184019650505b505050505092915050565b60408152600061405d6040830185613fcd565b828103602084015261406f8185613fcd565b95945050505050565b634e487b7160e01b600052602160045260246000fd5b6001600160401b038616815260a0602082015260006140b060a0830187613922565b61ffff9590951660408301525063ffffffff92909216606083015260809091015292915050565b8082028115828204841417610fd457610fd4613bf2565b6000816140fd576140fd613bf2565b506000190190565b600181815b8085111561414057816000190482111561412657614126613bf2565b8085161561413357918102915b93841c939080029061410a565b509250929050565b60008261415757506001610fd4565b8161416457506000610fd4565b816001811461417a5760028114614184576141a0565b6001915050610fd4565b60ff84111561419557614195613bf2565b50506001821b610fd4565b5060208310610133831016604e8410600b84101617156141c3575081810a610fd4565b6141cd8383614105565b80600019048211156141e1576141e1613bf2565b029392505050565b600061340e838361414856fea2646970667358221220b06ea3ff4754c1f7d9b4fd6181dda9aacd16339e7027d88969c6f9d9db3a5f0164736f6c63430008140033","linkReferences":{}},"methodIdentifiers":{"acceptOwnership()":"79ba5097","checkUpkeep(bytes)":"6e04ff0d","claimNFT(uint256)":"fe5c873a","convertAddressToString(address)":"5ab59312","createGame(uint256,uint256)":"60104cef","createGameDefault()":"c0722c99","createGameWithInterval(uint256)":"0411ac75","depositNFT(uint256,address,uint256)":"7d6f643b","endGame(uint256)":"d0399bb8","fulfillWinnerMt(uint256,uint256)":"47828219","fulfillWinners(uint256)":"8a8da05b","games(uint256)":"117a5b90","getGameCreator(uint256)":"7ad40c86","getGameEndTime(uint256)":"ee7bdc4f","getGameIsActive(uint256)":"185e2187","getGameParticipantScore(uint256,address)":"6f6410fd","getGameParticipants(uint256)":"45fa9549","getGameScores(uint256)":"55985b8f","getGameStartTime(uint256)":"b131d053","getLastRandomWords()":"3c256b24","getLastRequestId()":"19c2b4c3","getLastResponse()":"503f0475","getLastScoreRequest()":"5455d59c","getScoreResponse(bytes32)":"d03ae0aa","getVrfRequestStatus(uint256)":"07119431","getWinners(uint256)":"6b1426a4","handleOracleFulfillment(bytes32,bytes,bytes)":"0ca76175","joinGame(uint256,uint256)":"b60b9fcb","nextGameId()":"b135bbb0","owner()":"8da5cb5b","pause()":"8456cb59","paused()":"5c975abb","performUpkeep(bytes)":"4585e33b","rawFulfillRandomWords(uint256,uint256[])":"1fe543e3","reclaimNFT(uint256)":"a08db82e","requestRandomWords(uint256)":"bc85777c","requestScoreForParticipant(uint256,address)":"6554e38a","s_lastError()":"4b0795a8","s_lastRequestId()":"b1e21749","s_lastResponse()":"3944ea3a","s_vrfCoordinator()":"9eccacf6","s_vrfRequests(uint256)":"2da27092","setCoordinator(address)":"8ea98117","transferOwnership(address)":"f2fde38b","unpause()":"3f4ba83a","vrfLastRequestId()":"7d058d4f","vrfRequestIds(uint256)":"425c9fa2"},"id":1}